:100000000C94E3000C94460D0C94730D0C940B01AE
:100010000C940B010C940B010C940B010C940B0130
:100020000C940B010C940B010C940B010C947610A6
:100030000C940B010C940B010C940B010C940B0110
:100040000C94A00D0C940B010C944F0B0C94920B80
:100050000C940B010C940B010C940B010C940B01F0
:100060000C940B010C940B016E616E00696E6600BE
:100070000000000700020100000304060000000069
:100080000000000001020408102040800102040862
:1000900010200102040810200404040404040404D1
:1000A0000202020202020303030303030000000032
:1000B000250028002B0000000000240027002A0053
:1000C00000407A10F35A00A0724E18090010A5D40F
:1000D000E80000E87648170000E40B54020000CA6C
:1000E0009A3B000000E1F5050000809698000000B2
:1000F00040420F000000A086010000001027000011
:100100000000E803000000006400000000000A0096
:10011000000000000100000000002C76D888DC6799
:100120004F0823DFC1DFAE59E1B1B796E5E3E453F1
:10013000C63AE651997696E8E6C28426EB898C9B0E
:1001400062ED407C6FFCEFBC9C9F40F2BAA56FA5AE
:10015000F490055A2AF75C936B6CF9676DC11BFC30
:10016000E0E40D47FEF520E6B500D0ED902E03004B
:10017000943577050080841E080000204E0A000098
:1001800000C80C333333330F986E12831141EF8D57
:100190002114893BE65516CFFEE6DB18D1844B3897
:1001A0001BF77C1D901DA4BBE424203284725E22C8
:1001B0008100C9F124ECA1E53D27A50C200F061113
:1001C0005D12F31FE42111241FBECFEFD8E0DEBF84
:1001D000CDBF12E0A0E0B1E0E4E6F9E402C0059092
:1001E0000D92AA3AB107D9F714E0AAEAB2E001C029
:1001F0001D92A73EB107E1F711E0C6ECD1E004C0C3
:100200002297FE010E94D222CA3BD107C9F70E9461
:10021000390D0C94B0240C9400002F923F924F9211
:100220005F926F927F928F929F92AF92BF92CF9286
:10023000DF92EF92FF920F931F93CF9319012A0140
:100240003B014C0160E070E080E090E05101620110
:10025000730184010E94002329F4B101C2010E94AC
:100260008B0566C09101A201B301C40100E20E94A6
:10027000F122B901CA010E94D622AA2797FDA095B2
:10028000BA2F20E2C22ED12CE12CF12CC81AD90AA7
:10029000EA0AFB0ACC2D9101A201B301C4010C2D85
:1002A0000E94F12260E270E06C197D0904C0220C0A
:1002B000331C441C551C6A95D2F7622F232824282E
:1002C000252809F401C06160732FCA010E948B05C3
:1002D0003B014C0180E2C816D104E104F104A9F00D
:1002E0009FE1C916D104E104F10499F061E070E0E6
:1002F00080E090E004C0660F771F881F991FCA95A1
:10030000D2F70E94E004272F08C060E020E080E8D8
:1003100003C060E020E080E09FE4F22F262F3F2F13
:10032000482F592F662D772D882D992D0E9458031F
:10033000CF911F910F91FF90EF90DF90CF90BF90E2
:10034000AF909F908F907F906F905F904F903F9075
:100350002F900895A0E0B0E0E0EBF1E00C946D2266
:100360003C01CB01EA01D3012C91223008F43EC1BB
:10037000FB013081323008F436C1243071F434305E
:1003800009F034C111962C918181281709F42EC1EE
:10039000B3E06B2EB1E07B2E29C1343009F423C1C8
:1003A000323091F4223009F021C128E0F301DA0162
:1003B00001900D922A95E1F7DB0111968C91F301E2
:1003C00091818923898311C1223009F40CC1D301A1
:1003D0001296ED91FC911397DB0112966D917C9131
:1003E0001397D30114960D911D912D913C91179760
:1003F000DC011496CD90DD90ED90FC901797AF0145
:10040000461B570BDA0157FF04C0AA27BB27A41BC2
:10041000B50BA032B1050CF065C0141615067CF5BD
:10042000B701A6010A2E04C07695679557954795A2
:100430000A94D2F7812C912C5401839404C0880C27
:10044000991CAA1CBB1CAA95D2F7B1E08B1A910883
:10045000A108B1088C209D20AE20BF20C12CD12C3A
:100460007601C39481149104A104B10419F4C12C40
:10047000D12C7601C42AD52AE62AF72A3EC0452B7C
:10048000E1F1EA0FFB1FB901A8010A2E04C076951D
:100490006795579547950A94D2F7812C912C540172
:1004A000839404C0880C991CAA1CBB1CAA95D2F783
:1004B000A1E08A1A9108A108B10880229122A22203
:1004C000B32201E010E020E030E081149104A104A7
:1004D000B10419F400E010E09801042B152B262B31
:1004E000372B0BC06E177F0724F4C12CD12C76015B
:1004F00004C0FB0100E010E09801D30111964C917B
:10050000DC0111968C91481709F442C0442349F04C
:10051000D701C601801B910BA20BB30B8C019D016F
:1005200004C00C191D092E093F0937FD04C01982AA
:10053000FB83EA830BC081E08983FB83EA833095E8
:100540002095109501951F4F2F4F3F4F0C831D8312
:100550002E833F830DC0880F991FAA1FBB1F8C835A
:100560009D83AE83BF838A819B8101979B838A830E
:100570008C819D81AE81BF818C019D01015011094B
:10058000210931090F3F1F4F2F4F3F4320F30BC06D
:100590004983FB83EA830C0D1D1D2E1D3F1D0C831B
:1005A0001D832E833F8383E088830C811D812E81F0
:1005B0003F8137FF1AC0D901C80181709927AA2746
:1005C000BB273695279517950795802B912BA22B46
:1005D000B32B8C839D83AE83BF838A819B810196DD
:1005E0009B838A8302C03C0101C03E01C301CDB799
:1005F000DEB7EEE00C948922A0E2B0E0E2E0F3E0A6
:100600000C9479226D8F7E8F8F8F98A3298F3A8FCC
:100610004B8F5C8FBE016F5E7F4FCE014D960E9467
:10062000C206BE01675F7F4FCE0149960E94C20697
:10063000AE014F5F5F4FBE01675F7F4FCE014196B6
:100640000E94AA010E940106A096E2E00C94952265
:10065000A0E2B0E0EEE2F3E00C9479226D8F7E8FA1
:100660008F8F98A3298F3A8F4B8F5C8FBE016F5E5F
:100670007F4FCE014D960E94C206BE01675F7F4F3D
:10068000CE0149960E94C2068A8591E089278A8711
:10069000AE014F5F5F4FBE01675F7F4FCE01419656
:1006A0000E94AA010E940106A096E2E00C94952205
:1006B000A0E2B0E0EEE5F3E00C946B226D8F7E8F4C
:1006C0008F8F98A3298F3A8F4B8F5C8FBE016F5EFF
:1006D0007F4FCE014D960E94C206BE01675F7F4FDD
:1006E000CE0149960E94C2069989923008F412C040
:1006F0008985823008F41AC0943021F4823009F4DC
:10070000B4C008C0843021F4923009F4AEC00EC0E9
:10071000923051F481E02A899A85291301C080E042
:100720008A8BCE014196A3C0823051F481E02A89A0
:100730009A85291301C080E08A87CE01099697C067
:100740008D889E88AF88B88C0D851E852F85388949
:10075000E0E2F0E080E090E0DC01C12CD12C7601F9
:1007600040E050E0BA0180FE18C0400F511F621FE8
:10077000731F8C0D9D1DAE1DBF1D412C512C3201D0
:100780004394401751076207730718F0412C512C0E
:100790003201840D951DA61DB71DCC0CDD1CEE1C71
:1007A000FF1C37FF02C06894C0F8000F111F221F02
:1007B000331FB694A794979487943197A1F62B8909
:1007C0003C89EB85FC852E0F3F1F2E5F3F4F3C83FE
:1007D0002B8321E0EA893A85E31301C020E02A83D4
:1007E000EB81FC810CC080FF05C07695679557951D
:1007F00047957068B695A795979587953196B7FDFB
:10080000F2CF9F010CC0880F991FAA1FBB1F77FD55
:100810008160440F551F661F771F215031090097D3
:10082000A105E0E4BE0778F32B833C838C019D0196
:100830000F771127222733270034110521053105B1
:1008400059F487FD09C0452B462B472B29F0805CC6
:100850009F4FAF4FBF4F80788D839E83AF83B88704
:1008600083E08983CE01019602C083E091E00E947B
:100870000106A096E0E10C948722A8E1B0E0E3E451
:10088000F4E00C9473226D8B7E8B8F8B988F298B69
:100890003A8B4B8B5C8BBE01675F7F4FCE014596D9
:1008A0000E94C206BE016F5F7F4FCE0141960E943B
:1008B000C2069985923008F475C08981823008F4A7
:1008C00074C02A853A8123272A87943011F0923008
:1008D00019F4981367C06CC0843039F41D861E86E5
:1008E0001F86188A1C861B8604C0823029F484E087
:1008F0008987CE0109965EC08B859C852B813C81C2
:10090000821B930B9C878B874D855E856F857889CD
:10091000CD80DE80EF80F8844C155D056E057F0587
:1009200038F4440F551F661F771F01979C878B87EC
:10093000EFE1F0E000E010E020E030E480E090E063
:10094000DC014C155D056E057F0540F0802B912B79
:10095000A22BB32B4C195D096E097F09369527959B
:1009600017950795440F551F661F771F319749F755
:100970008C019D010F7711272227332700341105A1
:100980002105310559F487FD09C0452B462B472B1E
:1009900029F0805C9F4FAF4FBF4F80788D879E8737
:1009A000AF87B88BCE01099605C0CE01019602C073
:1009B00083E091E00E9401066896E8E00C948F22A3
:1009C000A8E0B0E0E6EEF4E00C94772223E029837F
:1009D0008B019C01002737FD039511272227332720
:1009E000402F0A83611571058105910519F482E094
:1009F000898335C02EE130E03C832B83442371F0A2
:100A000061157105810520E8920771F10027112712
:100A10009801061B170B280B390B02C08B019C0198
:100A2000C901B8010E94D6220197181619062CF0A8
:100A30000D831E832F83388712C0082E04C0000F39
:100A4000111F221F331F0A94D2F70D831E832F8399
:100A500038872EE130E0281B390B3C832B83CE01F5
:100A600001960E94010604C060E070E080E09FEC07
:100A70002896E4E00C949322ACE0B0E0E2E4F5E0E8
:100A80000C94772269877A878B879C87BE016F5F7A
:100A90007F4FCE0109960E94C2068981823091F172
:100AA000823080F1843041F48A81882331F100E082
:100AB00010E020E030E829C02B813C8137FD22C0C6
:100AC0002F3131058CF78EE190E0821B930B0D8165
:100AD0001E812F81388504C0369527951795079577
:100AE0008A95D2F78A81882381F0309520951095D8
:100AF00001951F4F2F4F3F4F08C00FEF1FEF2FEFF4
:100B00003FE703C000E010E09801B801C9012C964E
:100B1000E4E00C949322A8E0B0E0E1E9F5E00C9465
:100B200073228B019C011A82611571058105910563
:100B300019F482E089835DC083E089834EE150E04F
:100B40005C834B83C901B8010E94D622019797FFAD
:100B500039C0EE27FF27E81BF90B41E050E060E0C9
:100B600070E00E2E04C0440F551F661F771F0A94B5
:100B7000D2F7415051096109710940235123622381
:100B80007323C12CD12C7601C394452B462B472BC4
:100B900019F4C12CD12C760104C0369527951795F0
:100BA0000795EA95D2F70C291D292E293F290D8397
:100BB0001E832F8338872EE130E0281B390B3C83BE
:100BC0002B8317C0009729F40D831E832F8338874A
:100BD00010C0082E04C0000F111F221F331F0A94DB
:100BE000D2F70D831E832F833887481B590B5C83F4
:100BF0004B83CE0101960E9401062896E8E00C94F2
:100C00008F220F931F93CF93FC01448155816681FE
:100C10007781C1818081823020F460618FEF90E024
:100C2000A3C0843009F49BC0823009F492C04115FE
:100C300051056105710509F48FC022813381223885
:100C40008FEF38070CF057C0E2E8FFEFE21BF30B21
:100C5000EA31F10564F58A019B010E2E04C0369538
:100C60002795179507950A94D2F781E090E0A0E0C8
:100C7000B0E004C0880F991FAA1FBB1FEA95D2F7E6
:100C80000197A109B10984239523A623B72341E045
:100C900050E060E070E0892B8A2B8B2B19F440E048
:100CA00050E0BA01402B512B622B732B03C040E064
:100CB00050E0BA01DB01CA018F779927AA27BB2729
:100CC00080349105A105B10539F447FF09C0405CA6
:100CD0005F4F6F4F7F4F04C0415C5F4F6F4F7F4F3F
:100CE00081E090E041155105610520E4720748F567
:100CF00080E090E026C0203831058CF5DB01CA0188
:100D00008F779927AA27BB2780349105A105B105C4
:100D100039F447FF09C0405C5F4F6F4F7F4F04C0FD
:100D2000415C5F4F6F4F7F4F77FD04C0C901815811
:100D30009F4F07C07695679557954795C90180588D
:100D40009F4F97E076956795579547959A95D1F778
:100D50000BC080E090E005C080E090E005C08FEF20
:100D600090E040E050E0BA01982F9695C0FB97F9CB
:100D7000362F80FB37F9642F752F832FCF911F916A
:100D80000F910895CF92DF92EF92DC01FB01CC909E
:100D90001196DC90119712968C9112973FE7E32EF3
:100DA000E8226E2DA60170E0982F991F9927991FB0
:100DB00013962C91822F880F892B90E027FB2227F6
:100DC00020F92183009729F5411551056105710529
:100DD00011F482E027C082E89FEF9383828327E0AB
:100DE000440F551F661F771F2A95D1F783E0808334
:100DF00009C0440F551F661F771F82819381019799
:100E00009383828341155105610580E4780788F357
:100E100020C08F3F910579F4411551056105710599
:100E200019F484E0808319C0E4FE03C081E080836C
:100E300010C010820EC08F5791099383828383E084
:100E4000808387E0440F551F661F771F8A95D1F76F
:100E500070644483558366837783EF90DF90CF90EF
:100E60000895A3E1B0E0E7E3F7E00C9469227C0188
:100E70005B018A01FC0117821682838181FD03C018
:100E80006DC3860105C088248394912C8C0E9D1E11
:100E9000F7019381F50193FD859193FF81915F01A6
:100EA000882309F457C3853239F493FD859193FF64
:100EB00081915F01853231F4B70190E00E942624D0
:100EC0006801DFCF412C512C20E02032A8F48B3276
:100ED00061F028F4803251F0833271F40BC08D320E
:100EE00039F0803349F4216028C02260246025C095
:100EF000286023C0206121C027FD27C0382F305330
:100F00003A3078F426FF06C0FAE04F9E300D1124E7
:100F1000432E13C08AE0589E300D1124532E2062B8
:100F20000CC08E3221F426FD15C3206406C08C3619
:100F300011F4206802C0883641F4F50193FD8591D3
:100F400093FF81915F018111C0CF982F9554933009
:100F500018F42061805E06C0982F9556933008F0F3
:100F6000A1C12F7E26FD02C056E0452E4FE3742E10
:100F70007222853619F4F0E47F2A07C0863619F408
:100F800020E8722A02C041104A9477FE07C03BE372
:100F9000341548F0342C339427E00DC087E08415D5
:100FA00030F0242D07C027E03CE3332E04C027E0B7
:100FB00097E0492E312C680194E0C90ED11CF8014C
:100FC0006081718182819381032DA4010E94092394
:100FD0008C0129812C8720FF02C023FF07C071FCF0
:100FE00008C072FE09C080E2682E07C0BDE26B2E09
:100FF00004C0ABE26A2E01C0612C8C858C70A1F11B
:10100000662011F084E001C083E0851510F0512CBA
:101010000BC0581A73FC08C0B70180E290E00E9430
:1010200026245A94C9F7F3CF662029F0B701862DFC
:1010300090E00E9426243C8533FD03C00CE610E0BE
:101040000CC008E610E009C071108052B70190E0B2
:101050000E9426240F5F1F4F02C080E17822F80112
:1010600084918111F1CF73C277FE0EC0300E2C85B2
:1010700024FF04C08A81813309F43A9413144CF597
:1010800038E0331548F12CC076FC2AC0242D30E01E
:101090002017310744F00C3F8FEF180724F090E839
:1010A000792A01C04A94442049F0E2E0F0E0EC0FD4
:1010B000FD1FE40DF11D80818033A1F377FE10C088
:1010C000342C3394242D30E00217130744F4401AD3
:1010D00007C03324339404C0F8E03F2E01C0412CF4
:1010E00077FE07C0101611063CF498012F5F3F4FA2
:1010F00005C025E030E002C021E030E0662011F0BC
:101100002F5F3F4F442031F0442D50E04F5F5F4F41
:10111000240F351F452D50E02417350714F4521ABB
:1011200001C0512C872D897049F406C0B70180E2B7
:1011300090E00E9426245A945110F8CF662029F09E
:10114000B701862D90E00E94262473FC09C006C0DA
:10115000B70180E390E00E9426245A945110F8CF02
:1011600077FE53C0380117FF02C0612C712C1E8618
:101170001D86980123193109388B2F8718012618ED
:101180003708280C391C642D70E022273327261BD2
:10119000370B3A8B298B3FEF6316730629F4B7019F
:1011A0008EE290E00E942624061517055CF02F853C
:1011B00038892615370534F4ED85FE85E20DF31DDB
:1011C000818101C080E331E0631A71082D853E857D
:1011D0002F5F3F4F3E872D8729893A896216730614
:1011E0002CF0B70190E00E942624D5CF601671063E
:1011F00049F49A81963328F4953321F43C8534FDE3
:1012000001C081E3B70190E04AC08A81813319F0BF
:101210002C852F7E2C87B70190E00E942624411058
:1012200005C074FE16C085E490E015C0B7018EE2DB
:1012300090E00E942624E2E06E2EF401E60DF11DFE
:101240006394B701808190E00E9426244A94A9F714
:10125000E8CF85E690E0B7010E94262417FD06C07E
:101260000115110541F43C8534FF05C01195019528
:1012700011098DE201C08BE2B70190E00E942624A3
:1012800080E303C08F5F0A5011090A301105D4F7BB
:10129000B70190E00E942624B701C801C0960E94C1
:1012A000262455C1833631F0833781F0833509F028
:1012B0005EC024C0680182E0C80ED11CF8018081A4
:1012C000898366246394712C840114C06801F2E060
:1012D000CF0ED11CF8010081118126FF03C0642DBF
:1012E00070E002C06FEF7FEFC8012B8B0E941B24C0
:1012F0003C012B896FE7462E422217C06801F2E0BD
:10130000CF0ED11CF8010081118126FF03C0642D8E
:1013100070E002C06FEF7FEFC8012B8B0E940024AA
:101320003C012B8950E8452E422A43FC1CC006C0D4
:10133000B70180E290E00E9426245A94852D90E027
:1013400068167906A8F30FC0F80147FC859147FE9F
:1013500081918F01B70190E00E94262451105A9488
:10136000F1E06F1A71086114710471F7F0C08436EE
:1013700011F0893661F5680127FF09C034E0C30E1A
:10138000D11CF80160817181828193810AC0F2E0F1
:10139000CF0ED11CF80160817181882777FD80957F
:1013A000982F4FE6742E722297FF09C09095809572
:1013B000709561957F4F8F4F9F4FF0E87F2A2AE00D
:1013C00030E0A4010E945224682E681847C0853777
:1013D00031F43FEE732E72222AE030E024C099EF00
:1013E000792E72228F36B9F020F4883509F0B2C018
:1013F0000DC0803721F0883709F0ACC002C020E171
:10140000722A74FE0BC034E0732A08C024FF09C09E
:1014100086E0782A06C028E030E005C020E130E010
:1014200002C020E132E0680177FE09C094E0C90EF5
:10143000D11CF801608171818281938108C0F2E042
:10144000CF0ED11CF8016081718180E090E0A40191
:101450000E945224682E6818FFE77F2276FE0BC098
:10146000072D0E7F641450F474FE0AC072FC08C08D
:10147000072D0E7E05C0162D072D03C0162D01C0A9
:10148000142D04FF0CC0FE01E60DF11D8081803398
:1014900011F4097E08C002FF05C01E5F04C0802F42
:1014A000867809F01F5F03FD12C000FF0DC0462CB7
:1014B000151550F4450C411A152D06C0B70180E2F0
:1014C00090E00E9426241F5F1515C0F304C0151577
:1014D00010F4511A01C0512C04FF10C0B70180E371
:1014E00090E00E94262402FF1EC001FF03C088E591
:1014F00090E002C088E790E0B7010CC0802F8678AA
:1015000091F001FD02C080E201C08BE207FD8DE297
:10151000B70190E00E94262406C0B70180E390E066
:101520000E9426244A946414C0F36A94F401E60DE0
:10153000F11DB701808190E00E9426246110F5CF53
:1015400006C0B70180E290E00E9426245A94511010
:10155000F8CF97CCF7012681378102C02FEF3FEFFC
:10156000C9016396E2E10C948522FC01848595858E
:10157000FC01E05CFF4F20813181FC01EE5BFF4FFD
:1015800080819181281B390B2F733327C90108955E
:10159000FC0184859585FC01E05CFF4F4081518111
:1015A000FC01EE5BFF4F208131814217530741F070
:1015B0000190F081E02DE80FF91F208130E002C09A
:1015C0002FEF3FEFC9010895FC0184859585FC014B
:1015D000E05CFF4F40815181FC01EE5BFF4F2081B9
:1015E00031814217530771F0A081B181A80FB91F53
:1015F0002C918081918101968F73992791838083AB
:1016000030E002C02FEF3FEFC9010895FC0181A136
:10161000882329F0A489B5898C9186FFFBCF11A27C
:101620000895CF93DF93FC0126853785D901A05C0F
:10163000BF4F8D919C91119701968F739927E90166
:10164000CE5BDF4F4881598184179507D9F30D9000
:10165000BC91A02DA20FB31F6C93A685B785A05C8B
:10166000BF4F11969C938E93A689B7892C9181E0E8
:1016700090E0078C02C0880F991F0A94E2F7282B8C
:101680002C9381E081A30488F589E02D808180641A
:10169000808381E090E0DF91CF91089508951F92BB
:1016A0000F920FB60F9211242F933F934F938F9366
:1016B0009F93EF93FF938091C00082FD1CC04091E7
:1016C000C600809150039091510301968F73992722
:1016D00020915203309153038217930771F0E091E8
:1016E0005003F0915103E05FFC4F4083909351030E
:1016F0008093500302C08091C600FF91EF919F91AB
:101700008F914F913F912F910F900FBE0F901F908F
:1017100018958AEA92E00E94B50A892B11F00C9480
:101720004E0B08951F920F920FB60F9211242F9314
:101730003F938F939F93EF93FF9320910C033091EE
:101740000D0380910E0390910F032817390731F490
:101750008091C1008F7D8093C10014C0E0910E0381
:10176000F0910F03E453FD4F208180910E0390917F
:101770000F0301968F73992790930F0380930E03A5
:101780002093C600FF91EF919F918F913F912F91F0
:101790000F900FBE0F901F901895CF92DF92EF928F
:1017A000FF92CF93DF93EC016A017B01411581EE3B
:1017B000580761057105F9F0EC89FD8981E090E039
:1017C00008A002C0880F991F0A94E2F7808360E0A6
:1017D00079E08DE390E0A70196010E942B22215031
:1017E0003109410951095695479537952795211596
:1017F00080E1380798F0EC89FD89108260E874E890
:101800008EE190E0A70196010E942B222150310920
:10181000410951095695479537952795E889F989E2
:101820003083EA89FB89208319A2EE89FF894081F0
:1018300081E090E09C010C8C02C0220F331F0A94BF
:10184000E2F7422B4083EE89FF8940819C010D8C99
:1018500002C0220F331F0A94E2F7422B4083EE8925
:10186000FF8940819C010E8C02C0220F331F0A9415
:10187000E2F7422B4083EE89FF8920810F8C02C062
:10188000880F991F0A94E2F7809582238083DF9165
:10189000CF91FF90EF90DF90CF900895CF93DF939B
:1018A000FC0186859785DC01A05CBF4FEC01CE5B17
:1018B000DF4F4D915C911197288139814217530771
:1018C000C1F7A689B7894C9181E090E09C01048C16
:1018D00002C0220F331F0A94E2F7209524232C9391
:1018E000A689B7894C919C01058C02C0220F331F39
:1018F0000A94E2F7209524232C93A689B7894C916A
:101900009C01068C02C0220F331F0A94E2F7209537
:1019100024232C93A689B7892C91078C02C0880FA9
:10192000991F0A94E2F7809582238C93848595858C
:10193000FC01EE5BFF4F20813181FC01E05CFF4F39
:1019400031832083DF91CF9108951092AD021092E0
:10195000AC0288EE93E0A0E0B0E08093AE029093FA
:10196000AF02A093B002B093B1028FE091E09093E8
:10197000AB028093AA0280E193E09093B702809338
:10198000B6028CEC92E09093B9028093B80285EC99
:1019900090E09093BB028093BA0284EC90E0909325
:1019A000BD028093BC0280EC90E09093BF028093D4
:1019B000BE0281EC90E09093C1028093C00282EC61
:1019C00090E09093C3028093C20286EC90E09093E3
:1019D000C5028093C40284E08093C60283E08093B2
:1019E000C70287E08093C80285E08093C90281E046
:1019F0008093CA020895CF92DF92EF92FF920F93E5
:101A00001F93CF93DF936C01EB017A01E60EF71E73
:101A100000E010E00BC06991D601ED91FC910190BE
:101A2000F081E02DC6010995080F191FCE15DF05BD
:101A300091F7C801DF91CF911F910F91FF90EF9027
:101A4000DF90CF9008956115710581F0DB010D9055
:101A50000020E9F7AD0141505109461B570BDC014D
:101A6000ED91FC910280F381E02D099480E090E0FB
:101A700008950E944C0E0E94C020C9E8DBE00E943D
:101A800069212097E1F30E94890BF9CF1F920F92F1
:101A90000FB60F9211242F933F934F935F936F9341
:101AA0007F938F939F93AF93BF93EF93FF93809117
:101AB000540390915503892B29F0E0915403F09140
:101AC00055030995FF91EF91BF91AF919F918F9130
:101AD0007F916F915F914F913F912F910F900FBE2A
:101AE0000F901F9018951F920F920FB60F9211240E
:101AF0002F933F934F935F936F937F938F939F9316
:101B0000AF93BF93EF93FF93809156039091570348
:101B1000892B29F0E0915603F09157030995FF9125
:101B2000EF91BF91AF919F918F917F916F915F9155
:101B30004F913F912F910F900FBE0F901F901895CE
:101B40001F920F920FB60F9211242F933F938F93F2
:101B50009F93AF93BF938091580390915903A091A5
:101B60005A03B0915B0330916003232F2D5F2D3713
:101B700020F40196A11DB11D05C0232F2A570296FE
:101B8000A11DB11D209360038093580390935903C6
:101B9000A0935A03B0935B0380915C0390915D0323
:101BA000A0915E03B0915F030196A11DB11D8093CA
:101BB0005C0390935D03A0935E03B0935F03BF91BA
:101BC000AF919F918F913F912F910F900FBE0F90EA
:101BD0001F9018950F931F938FB7F8940091580397
:101BE0001091590320915A0330915B038FBFB801C4
:101BF000C9011F910F9108950F931F939FB7F894F8
:101C000000915C0310915D0320915E0330915F03AE
:101C100086B5A89B06C08F3F21F00F5F1F4F2F4F47
:101C20003F4F9FBF322F212F102F0027080F111D6C
:101C3000211D311D42E0000F111F221F331F4A9545
:101C4000D1F7B801C9011F910F910895CF92DF928A
:101C5000EF92FF92CF93DF936B017C010E94FC0D0A
:101C6000EB010EC00E94FC0D6C1B7D0B683E7340A7
:101C700038F081E0C81AD108E108F108C851DC4FFA
:101C8000C114D104E104F10469F7DF91CF91FF9011
:101C9000EF90DF90CF900895789484B5826084BDF2
:101CA00084B5816084BD85B5826085BD85B5816060
:101CB00085BDEEE6F0E0808181608083E1E8F0E0C0
:101CC0001082808182608083808181608083E0E8EF
:101CD000F0E0808181608083E1EBF0E080818460CE
:101CE0008083E0EBF0E0808181608083EAE7F0E0D0
:101CF0008081846080838081826080838081816034
:101D000080838081806880831092C1000895833031
:101D100069F028F48130A1F0823011F514C08630CA
:101D2000B1F08730C1F08430D9F404C080918000D4
:101D30008F7703C0809180008F7D8093800008950D
:101D400084B58F7702C084B58F7D84BD089580915E
:101D5000B0008F7703C08091B0008F7D8093B0007A
:101D60000895CF93DF9390E0FC01EC57FF4F44912F
:101D7000FC01E856FF4F8491882341F190E0880FE1
:101D8000991FFC01EA54FF4F25913491D9018455E4
:101D90009F4FFC0185919491C82FD92F9FB7F8943C
:101DA0008C91611106C0409584238C938881842393
:101DB00008C0623041F4242F209582238C938881BF
:101DC000842B888302C0842B8C939FBFDF91CF919B
:101DD00008950F931F93CF93DF931F92CDB7DEB774
:101DE000282F30E0F901E059FF4F8491F901EC57B9
:101DF000FF4F1491F901E856FF4F04910023D1F0F1
:101E0000882321F069830E94870E6981E02FF0E02A
:101E1000EE0FFF1FE455FF4F85919491DC019FB7B2
:101E2000F8948C91611103C01095812301C0812B1E
:101E30008C939FBF0F90DF91CF911F910F910895C9
:101E4000E1E6F3E08CE1DF011D928A95E9F710925B
:101E50007D0310927E0310927F03109280031092F4
:101E600081031092820310928303109284031092D4
:101E700085031092860310928703109288031092B4
:101E8000890310928A0310928B0310928C03109294
:101E90008D0310928E0310928F0310929003109274
:101EA0009103109292031092930310929403109254
:101EB0009503109296031092970310929803109234
:101EC000990310929A0310929B0310929C03109214
:101ED0009D0310929E0310929F031092A0031092F4
:101EE000A1031092A2031092A3031092A4031092D4
:101EF000A5031092A6031092A7031092A8031092B4
:101F0000AA031092A9031092AB0308958091AF0326
:101F1000811104C080918000806C04C08091800099
:101F20008F7380688093800008958091AF03882329
:101F300021F080918000806C04C0809180008F73BC
:101F400080688093800008958F929F92AF92BF9295
:101F5000CF92DF92EF92FF92CF93DF936B017C01E0
:101F60004093AF0361E089E00E94B10E6091AF033E
:101F700081E0682789E00E94E90E109280001092AB
:101F80008100109285001092840060E074E284EF7A
:101F900090E0A70196010E944D224B015C01C70110
:101FA000B60122E030E040E050E00E944D22821A6B
:101FB000930AA40AB50AC1E0D0E0181419041A045F
:101FC0001B0414F0C0E0D0E060E074E284EF90E025
:101FD000A70196010E944D222C0F3D1F30938900CE
:101FE0002093880080918100886080938100809197
:101FF0008100816080938100B19880916F00826040
:1020000080936F00DF91CF91FF90EF90DF90CF90A2
:10201000BF90AF909F908F900C94860FF89481E0C2
:102020002091B0033091B103232B09F080E0789424
:102030000895CF93C82F0E940E10811136C0F894D6
:10204000E091B003F091B103309761F1C08320912A
:10205000B2033091B3038091B0039091B103232B6D
:1020600021F49093B3038093B20301969093B1034C
:102070008093B0038851944031F484EB93E09093C3
:10208000B1038093B0032091B0033091B1038091EC
:10209000B2039091B3032817390721F41092B103CA
:1020A0001092B003789481E001C080E0CF91089550
:1020B000EF92FF920F931F93CF93DF937B018C01DD
:1020C000C0E0D0E008C0F80181918F010E94191092
:1020D000882321F02196CE15DF05ACF3CE01DF91E8
:1020E000CF911F910F91FF90EF9008951F920F9243
:1020F0000FB60F9211242F933F934F935F936F93DB
:102100007F938F939F93AF93BF93CF93DF93EF937F
:10211000FF93C0910001D0910101CF3F2FEFD20773
:1021200009F03EC08091B2039091B303892B09F46A
:102130005AC00E94950FE091B203F091B30330971B
:1021400051F18081809318048091B0039091B10384
:10215000892B21F4F093B103E093B0033196F0930F
:10216000B303E093B203E851F44031F484EB93E01D
:102170009093B3038093B2032091B2033091B303E1
:102180008091B0039091B1032817390721F4109280
:10219000B3031092B203109201011092000123C008
:1021A000C830D105C4F480911804992787FD909513
:1021B0000C2E02C0959587950A94E2F780FF03C024
:1021C0000E94860F02C00E94950F2196D0930101B4
:1021D000C093000108C08FEF9FEF9093010180939F
:1021E00000010E94860FFF91EF91DF91CF91BF9187
:1021F000AF919F918F917F916F915F914F913F919F
:102200002F910F900FBE0F901F90189584EB93E0C5
:102210009093B1038093B0031092B3031092B20372
:1022200008958F929F92AF92BF92CF92DF92EF92DA
:10223000FF920F931F93CF93DF9300D0CDB7DEB7FC
:102240006C015B01442331F08EE50E94191001E01E
:1022500010E002C000E010E07601E00EF11E8DE516
:10226000982E90E6892E17C0F70181917F01982F53
:102270009D55923060F4998288258A8362E070E0EF
:10228000CE0101960E9458100E5F1F4F04C00E949D
:1022900019100F5F1F4FC7018C199D098A159B05E7
:1022A0001CF3C8010F900F90DF91CF911F910F91F8
:1022B000FF90EF90DF90CF90BF90AF909F908F9066
:1022C000089540E063E070E086E394E00C9411111F
:1022D00040E062E070E084E394E00C94111140E08F
:1022E00063E070E08FE294E00C94111140E062E052
:1022F00070E08DE294E00C94111140E063E070E036
:1023000088E294E00C94111140E062E070E086E213
:1023100094E00C94111140E063E070E081E294E0FD
:102320000C94111140E062E070E08FE194E00C94B5
:102330001111FC014283538364837583408181E0E2
:1023400090E0DF01A80FB91F5C91242F30E0250F2A
:10235000311D230F420F01968630910591F7468378
:10236000089560916D0370916E0380916F03909159
:10237000700320E032ED49E45BE60E944D22AB01A0
:10238000BC0184E294E00E94991141E062E070E0B7
:1023900084E294E00C9411116091690370916A03D6
:1023A00080916B0390916C0320E032ED49E45BE691
:1023B0000E944D22AB01BC018DE194E00E94991175
:1023C00041E062E070E08DE194E00C9411116091C5
:1023D000750370917603809177039091780328EECE
:1023E00033E040E050E00E944D22BA01A9018BE2A7
:1023F00094E00E94991141E062E070E08BE294E089
:102400000C94111160919103709192038091930348
:10241000909194030E943C05AB01BC0182E394E0DF
:102420000E94991141E062E070E082E394E00C9434
:102430001111CF93DF93CCE0D0E01EC0E0911904DE
:10244000F0E0EE0FFF1FE55EFE4F0190F081E02D02
:10245000099520911A0430911B04280F391F3093DD
:102460001B0420931A048091190490E00196BE0188
:102470000E9403228093190420911A0430911B04B6
:1024800012161306DCF680911C0490E0019663E0BE
:1024900070E00E94172280931C04823019F483E0BC
:1024A00090E002C082E090E0281B390B30931B04BF
:1024B00020931A04DF91CF910895CF93CEE5C09376
:1024C0001D0481E080931E0440E050E0BA018DE1DC
:1024D00094E00E949911C093240482E08093250423
:1024E00040E050E0BA0184E294E00E949911C09368
:1024F0002B0488E080932C0440E050E0BA018BE28A
:1025000094E00E949911C093320487E080933304D1
:1025100040E050E0BA0182E394E0CF910C9499112D
:1025200081E00895CF93DF93EC0115C088819981F4
:10253000DC01ED91FC910680F781E02D09958497EF
:1025400051F41C8AC857DF4F8BED96E1998388833D
:102550001B821A820BC088819981DC01ED91FC916C
:102560000480F581E02D0995892B01F7DF91CF914A
:102570000895CF93DF93DC01EC012496FE010190D6
:102580000020E9F73297EC17FD0729F481E0149653
:102590009C919D3409F080E0DF91CF910895CF9315
:1025A000DF93DC01EC012496FE0101900020E9F7A5
:1025B0003297EC17FD0729F481E014969C919D3425
:1025C00009F080E0DF91CF910895CF93DF93DC0194
:1025D000EC012496FE0101900020E9F73297EC17F8
:1025E000FD0729F481E014969C91943509F080E070
:1025F000DF91CF910895CF93DF93DC01EC01249616
:10260000FE0101900020E9F73297EC17FD0729F44D
:1026100081E014969C919B3409F080E0DF91CF918A
:102620000895CF93DF93DC01EC012496FE01019025
:102630000020E9F73297EC17FD0729F481E01496A2
:102640009C919E3409F080E0DF91CF910895BC0108
:102650006C5F7F4FDB010D900020E9F71497A61700
:10266000B70731F48F579F4F0E94142481E00895DB
:1026700080E00895DC011496FD0101900020E9F747
:102680003197EA1BFB0BE130F105C9F4DC0114962C
:102690002C91263541F4FC01EC58FF4F1182108239
:1026A00081E082830895213451F4DC01AC58BF4F9E
:1026B0001196FC93EE9381E012968C93089580E03E
:1026C0000895982F90539A3000F18534D9F05CF436
:1026D0008D3279F02CF4882379F08B3281F409C0A3
:1026E0008E3269F403C0853651F40CC023E030E02B
:1026F0000EC022E030E00BC024E030E008C025E04E
:1027000030E005C021E030E002C020E030E0C90147
:1027100008952F923F924F925F926F927F928F9285
:102720009F92AF92BF92CF92DF92EF92FF920F9360
:102730001F93CF93DF93CDB7DEB7A0970FB6F89472
:10274000DEBF0FBECDBF8C017A836983DC011D9291
:102750001C92FB0140E050E0BA018191882371F0A6
:102760004F5F5F4F6F4F7F4F4F3FBFEF5B076B0771
:10277000BFE77B0791F74FEF5FEFBA01452B09F4F5
:102780007BC1E981FA81F0808F2D0E9461131C01C9
:1027900082309105A9F42DE2F21629F081E090E053
:1027A0009E878D8704C0AFEFBFEFBE87AD87E981FD
:1027B000FA8181810E9461131C0121E030E006C092
:1027C00020E030E081E090E09E878D87A980BA808C
:1027D000A20EB31E412C512C32012AC020E030E061
:1027E00040E251E4C301B2010E9458036B017C0135
:1027F000D5012D915D01332727FD3095B901605337
:102800007109882777FD8095982F0E94E0049B012D
:10281000AC016C2D7D2D8E2D9F2D0E94FC02462E2D
:10282000572E682E792EF50180810E9461131C01BC
:10283000950189819A81281B390B3C832B832114B4
:10284000310461F24B8A5C8A6D8A7E8A790193E059
:1028500029163104C9F52F5F3F4F3C832B83C98074
:10286000DA80C20ED31ED6018C910E9461131C0126
:10287000009701F5DC86CB86F7017496FA8BE98B1D
:102880001F8E18A2912C812C712C612C512C412C63
:10289000F1E0FD831E821F82188619861A861F8624
:1028A000188A2B813C8189899A892817390709F070
:1028B00014C1E6C0AB81BC81119731F48FEF9FEF5B
:1028C000F8019183808384C12A94232809F0CAC027
:1028D000EB80FC802FEFE21AF20AE981FA81EE0D1B
:1028E000FF1D1081812F0E94611382309105B1F488
:1028F0001D3221F088248394912C03C088248A946B
:10290000982CEB80FC8032E0E30EF11CE981FA8127
:10291000EE0DFF1D80810E94611303C08824839403
:10292000912CA981BA81AE0DBF1DBA83A98320E085
:1029300030E040E050E060E070E0A12CB12C46C0F7
:10294000C50101E00E94A0222B83232E342E5D833B
:10295000B62FA72FF82FE92F432D6B2F7A2F8F2F0C
:102960009E2F02E00E94A02259016A017B018C0186
:102970002B81322D432D5D816B2F7A2F8F2F9E2F30
:102980000E94AF22A981BA81ED91BA83A983FF2762
:10299000E7FDF095F0971F2F110F110B5F01C12E6E
:1029A000D12EE12EF12E012F0E94AF225C018C91DD
:1029B0002F8B388F498F5A8F6B8F7C8F0E946113BA
:1029C0007C8D6B8D5A8D498D388D2F89892B09F41B
:1029D000B7CF69017A018B01AB82B982B12CB0E02B
:1029E000F0E8EFE31CC020E030E040E251E42B2CA3
:1029F0003B2EB1018F2F9E2F0E945803B62EB72F6A
:102A0000F82FE92F9601A701B8018B819981AFEFCB
:102A10000E94B82269017A018B018B839983960108
:102A2000A701B8018B819981A0E00E94C42209F01E
:102A3000D4F6CF018A94892849F42B2D3B2F492FB6
:102A40005E2FC301B2010E94580308C02B2D3B2FFB
:102A5000492F5E2FC301B2010E943D04462E572E1E
:102A6000682E792E8D859E85019709F4B1C077FA7D
:102A7000709477F87094ACC0412C512C3201A8C0EE
:102A80002F8D38A1492D582D672D762D852D942D0C
:102A90000E940D016B017C012D813E814F81588583
:102AA00069857A858F8598890E940D019B01AC010B
:102AB000C701B6010E943D049B01AC01BB89AC89F2
:102AC000ED891E896B2F7A2F8E2F912F0E94FC0289
:102AD000462E572E682E792EF7CE2F8D38A1492DF0
:102AE000582D672D762D852D942D01E00E94A02272
:102AF00049013A01B62FA72FF82FE92F02E00E94D3
:102B0000A02259016A017B018C019401A3016B2F62
:102B10007A2F8F2F9E2F0E94AF2259016A017B01CD
:102B20008C01AB85BC85ED91BC87AB87FF27E7FDAA
:102B3000F095F0979F2F990F990B9F01492F592FCF
:102B4000692F792F892F0E94AF222F8F38A3942EBF
:102B5000852E762E672E582E492EEB81FC813196DC
:102B6000FC83EB838C910E9461139E8F8D8F2D814E
:102B70003E814F81588569857A858F85988901E0E6
:102B80000E94A022F9014F83588769877A87B82F5E
:102B9000A92F02E00E94A02259016A017B018C0149
:102BA0009F014F81588569857A858B2F9A2F0E94C6
:102BB000AF222D833E834F83588769877A878F871B
:102BC000988BAD8DBE8D109709F46BCE1D0158CF3B
:102BD000642D752D862D972DA0960FB6F894DEBF27
:102BE0000FBECDBFDF91CF911F910F91FF90EF905E
:102BF000DF90CF90BF90AF909F908F907F906F901D
:102C00005F904F903F902F900895982F9154963059
:102C100010F487530895982F9156963010F48755E5
:102C2000089580530895FC01E657FF4F408151817C
:102C3000DC01A857BF4F9A013595279540FD03C089
:102C4000ED91FC910DC0FC01E20FF31F0190F081AA
:102C5000E02D4D915C91E40FF51F0190F081E02D86
:102C6000820F931F0994CF93DF93EC01249663E3C3
:102C700071E0CE010E940B240097F9F069E371E046
:102C8000CE010E940B240097D9F06FE371E0CE01D2
:102C90000E940B240097B9F065E471E0CE010E9418
:102CA0000B24009799F06BE471E0CE010E940B2495
:102CB000009779F429E334E00EC02DE434E00BC032
:102CC00028E434E008C02EE334E005C023E434E017
:102CD00002C020E030E0C901DF91CF910895CF9389
:102CE000DF93EC0188819981DC01ED91FC910680F4
:102CF000F781E02D09959C8998279C8BDF91CF91D6
:102D00000895DC011296ED91FC911397309709F02C
:102D1000099408950F931F93CF93DF93EC0188815B
:102D20009981DC01ED91FC910680F781E02D0995F8
:102D3000082F88819981DC01ED91FC910680F78153
:102D4000E02D0995182F802F992787FD90950E94D7
:102D5000F523892BD1F0812F992787FD90950E942B
:102D6000F523892B91F0802F0E940516082F812FC3
:102D70000E940516B0E10B9F90011124282B4C896D
:102D800050E081E02417350709F080E0DF91CF9112
:102D90001F910F910895FC01118A108A138A128ADB
:102DA000148A1786E857FF4F82E992E19183808366
:102DB0001382128208951F93CF93DF93EC0139C0E1
:102DC000CE010E946F16182F992787FD90950E94BB
:102DD000E123892B91F028893989FE01E20FF31F45
:102DE0001483C9010196998B888B0B9711F5CE013D
:102DF000DF91CF911F910C94CB161C32C1F7E8895B
:102E0000F989EC0FFD1F1482198A188A1B8A1A8A05
:102E10001F86CE010E9433169E8B8D8B892B39F332
:102E2000C857DF4F83E997E1998388831B821A8211
:102E30000CC088819981DC01ED91FC910480F581C1
:102E4000E02D0995892B09F0BBCFDF91CF911F9120
:102E50000895EF92FF920F931F93CF93DF93EC01AE
:102E60008A017B013BC088819981DC01ED91FC9155
:102E70000680F781E02D0995288939898A3229F061
:102E80009C8998279C8B8C32E9F48F87FE01E20F96
:102E9000F31F1482232B79F1C70195958795E0FEE6
:102EA0000AC0FE01E80FF91F0190F081E02DE00F4C
:102EB000F11F008111818C0F9D1FF801099581116F
:102EC0001AC021C0FE01E20FF31F84832F5F3F4F22
:102ED000398B288B2B30310509F415C088819981F5
:102EE000DC01ED91FC910480F581E02D0995892BA1
:102EF00009F0B9CF11C08A899B8901969B8B8A8B77
:102F0000198A188A09C0CE01DF91CF911F910F91C4
:102F1000FF90EF900C94CB16DF91CF911F910F9102
:102F2000FF90EF900895CF93DF93EC018F858A3265
:102F3000C1F488819981DC01ED91FC910480F581D7
:102F4000E02D0995029744F1CE010E948A1688234C
:102F500019F0CE010E948116CE01DF91CF910C9421
:102F6000CB168A899B89ED89FE89248130E08217FE
:102F7000930790F7880F991F880F991F0280F3819C
:102F8000E02DE80FF91F4081518162817381CE01EC
:102F9000DF91CF910C942917DF91CF910895DC0137
:102FA0001496FD0101900020E9F73297EA17FB071C
:102FB00071F4FC012481822F992787FD9095C09799
:102FC0000A9728F42053FB01208381E0089580E0D4
:102FD00008958F929F92AF92BF92CF92DF92EF921D
:102FE000FF920F931F93CF93DF93EC018B01DC01D2
:102FF0001496FD0101900020E9F73197EA1BFB0BC5
:103000001E161F066CF53197812C912C5401839468
:10301000C12CD12C7601DE01AE0FBF1F1496AC91EE
:103020008A2F992787FD9095C0970A97C8F4A053D7
:10303000B0E0A50194010E94F821C60ED71EE81E3B
:10304000F91EAAE0B0E00E94F8214B015C01319723
:1030500010F7F801C082D182E282F38281E001C0E0
:1030600080E0DF91CF911F910F91FF90EF90DF9063
:10307000CF90BF90AF909F908F9008950F931F9324
:10308000CF93DF9300D0CDB7DEB78B011A821982C0
:10309000BC016C5F7F4FCE0101960E94891329818C
:1030A0003A81232B39F4F8016083718382839383FF
:1030B00081E001C080E00F900F90DF91CF911F91D0
:1030C0000F910895FB014081518162817381FC0160
:1030D000408351836283738314820895FB0140818E
:1030E000518162817381FC014083518362837383C8
:1030F00014820895FB0120813181FC0131832083FA
:1031000012820895FB012081FC0120831182089521
:10311000FB014081518162817381FC0140835183B5
:103120006283738314820895FB0120813181FC0145
:103130003183208312820895FB0120813181FC01BB
:103140003183208312820895FC0110821182089538
:10315000FC01108211821282138214820895FC01F4
:103160001182108212820895FC0110821182128253
:10317000138214820895FC0110821182128213823C
:1031800014820895CF92DF92EF92FF920F931F93D4
:10319000CF93DF93CDB7DEB72E970FB6F894DEBF8F
:1031A0000FBECDBF8C01FC017183608353834283CA
:1031B000118A108A138A128A148A1D821E821F8223
:1031C0001886BE016B5F7F4F47960E9462181D8272
:1031D0001E821F821886BE016B5F7F4FC8014C960E
:1031E0000E946E181D821E821F821886BE016B5FB0
:1031F0007F4FC80181960E946E181D821E821F8219
:103200001886BE016B5F7F4FC80186960E946E18BC
:103210001E861D86BE01635F7F4FC8018B960E948C
:103220007A181982BE016F5F7F4FC8018E960E9487
:103230008218C12CD12CB0E8EB2EBFE3FB2EC98243
:10324000DA82EB82FC82BE016F5F7F4FC801C096BD
:103250000E948818C982DA82EB82FC82BE016F5F0D
:103260007F4FC801C5960E948818C982DA82EB8216
:10327000FC82BE016F5F7F4FC801CA960E9488180A
:1032800019821A821B821C82BE016F5F7F4FC801A8
:10329000CF960E9488181C861B86BE01655F7F4FF3
:1032A000C8018C5B9F4F0E9494181A861986BE0134
:1032B000675F7F4FC801895B9F4F0E949C18780110
:1032C000FAE4EF0EF11C670188E1C80ED11CC701BA
:1032D0000E94A418E2E0EE0EF11CEC14FD04B9F714
:1032E000C8018E599F4F0E94A818C80189599F4F45
:1032F0000E94A818C80184599F4F0E94A818C801AD
:103300008F589F4F0E94AF18F801EC58FF4F118261
:1033100010821282C80189589F4F0E94B418C801B8
:1033200084589F4F0E94A818C8018F579F4F0E9432
:10333000BB18C8018A579F4F0E94A418F801E8578C
:10334000FF4F82E992E191838083138212822E964D
:103350000FB6F894DEBF0FBECDBFDF91CF911F91A6
:103360000F91FF90EF90DF90CF900895FC01DB016B
:103370008C91808381E08183CF0108950F931F9307
:10338000CF93DF9300D000D01F92CDB7DEB78C0172
:103390004FEF5FEFBA0149835A836B837C83FC0153
:1033A000848181110AC0F801828993899C0122508D
:1033B00031092C30310548F40AC0BE016F5F7F4FE0
:1033C000C8010E94E9178111EECF80E00DC029816C
:1033D0002D838396880F991FBE016B5F7F4F800FEF
:1033E000911F0E94B61981E00F900F900F900F90DF
:1033F0000F90DF91CF911F910F9108950F931F931D
:10340000CF93DF931F92CDB7DEB78C01BE016F5F04
:103410007F4F0E94CF17882369F08981843050F450
:10342000BE016F5F7F4FC8018A579F4F0E94B61938
:1034300081E001C080E00F90DF91CF911F910F914B
:103440000895FC01DB014D915D916D917C9140836C
:1034500051836283738381E08483CF0108950F9346
:103460001F93CF93DF9300D000D0CDB7DEB78C0190
:1034700019821A821B821C82BE016F5F7F4F0E94DD
:103480003E18882351F0BE016F5F7F4FC8018458FA
:103490009F4F0E94211A81E001C080E00F900F90A1
:1034A0000F900F90DF91CF911F910F9108950F937F
:1034B0001F93CF93DF9300D000D0CDB7DEB78C0140
:1034C000BE016F5F7F4F0E943E18882349F0BE0106
:1034D0006F5F7F4FC801CF960E94211A81E001C023
:1034E00080E00F900F900F900F90DF91CF911F9180
:1034F0000F9108950F931F93CF93DF93CDB7DEB74E
:1035000028970FB6F894DEBF0FBECDBF8C01BE0169
:103510006B5F7F4F0E943E188823C1F024EE38E392
:103520004EE85EE36D817E818F8198850E9458030D
:1035300069837A838B839C83BE016F5F7F4FC80151
:1035400084599F4F0E94211A81E001C080E0289693
:103550000FB6F894DEBF0FBECDBFDF91CF911F91A4
:103560000F9108950F931F93CF93DF93CDB7DEB7DD
:1035700028970FB6F894DEBF0FBECDBF8C01BE01F9
:103580006B5F7F4F0E943E188823C1F022EA32EB26
:1035900043E05FE36D817E818F8198850E945803AF
:1035A00069837A838B839C83BE016F5F7F4FC801E1
:1035B00084599F4F0E94211A81E001C080E0289623
:1035C0000FB6F894DEBF0FBECDBFDF91CF911F9134
:1035D0000F9108950F931F93CF93DF9300D000D0E6
:1035E000CDB7DEB78C01FC018481882399F0BE0140
:1035F0006F5F7F4FC8010E943E18882349F0BE01CB
:103600006F5F7F4FC80189599F4F0E94211A02C0E6
:1036100080E001C081E00F900F900F900F90DF913C
:10362000CF911F910F9108950F931F93CF93DF9325
:1036300000D000D0CDB7DEB78C01FC018481882397
:1036400099F0BE016F5F7F4FC8010E943E1888232A
:1036500049F0BE016F5F7F4FC8018E599F4F0E9496
:10366000211A02C080E001C081E00F900F900F90FE
:103670000F90DF91CF911F910F9108950F931F939A
:10368000CF93DF9300D000D0CDB7DEB78C01BE0161
:103690006F5F7F4F0E943E18882349F0BE016F5F25
:1036A0007F4FC801CA960E94211A81E001C080E0C4
:1036B0000F900F900F900F90DF91CF911F910F916E
:1036C00008950F931F93CF93DF9300D000D0CDB711
:1036D000DEB78C01BE016F5F7F4F0E943E188823CA
:1036E00049F0BE016F5F7F4FC801C5960E94211A45
:1036F00081E001C080E00F900F900F900F90DF915C
:10370000CF911F910F9108950F931F93CF93DF9344
:1037100000D000D0CDB7DEB78C01BE016F5F7F4F08
:103720000E943E18882349F0BE016F5F7F4FC80199
:10373000C0960E94211A81E001C080E00F900F9096
:103740000F900F90DF91CF911F910F910895CF931C
:10375000DF9300D000D0CDB7DEB7DC011496FD01B9
:1037600001900020E9F73297EA17FB07C9F4FC0142
:103770002481253499F0273599F484589F4FFC0112
:103780004081518162817381705849835A836B8370
:103790007C83BE016F5F7F4F0E94211A81E001C0D0
:1037A00080E00F900F900F900F90DF91CF910895D0
:1037B000FC01DB014D915D916D917C9140835183C2
:1037C0006283738381E08483CF0108956F927F9237
:1037D0008F929F92AF92BF92CF92DF92EF92FF9221
:1037E0000F931F93CF93DF9300D000D0CDB7DEB7F8
:1037F0007C013B01DC011496FD0101900020E9F7FA
:103800003197EA1BFB0BE730F1050CF4E6C020E032
:1038100030E0D701A20FB31F14968C918E3231F095
:103820002F5F3F4F2E173F07A1F7D7C089010350E5
:10383000110981E090E0C12CD12C7AE020C0A701D1
:10384000400F511FDA0114966C91462F552747FD02
:103850005095405351094A30510508F0BEC060539D
:10386000689FA001699F500D1124C40ED51EAC01A4
:10387000749FC001759F900D11240150110917FF0D
:10388000DECF490151E0851A9108A12CB12C81E0CD
:1038900090E0A901425051090AE021C0B701680D2A
:1038A000791DDB0114961C91612F772767FD7095B8
:1038B000605371096A30710508F08FC01053189F6A
:1038C000B001199F700D1124A60EB71EBC01069FF2
:1038D000C001079F900D112471E0871A910884168A
:1038E0009506E4F62F5F3F4F00E010E088EE93E08E
:1038F0004AE0842E912C1DC0D701A20FB31F14964D
:103900006C91462F552747FD5095405351094A3039
:10391000510508F062C06053689FA001699F500D77
:103920001124040F151FB4010E941722CB012F5F31
:103930003F4F2E173F0704F3B601882777FD809588
:10394000982F0E94E00420E836E948E15BE40E94F9
:1039500058036B017C01B501882777FD8095982F6E
:103960000E94E00420E034E244E759E40E94580356
:103970004B015C01B801882777FD8095982F0E9444
:10398000E00420E030E048EC52E40E9458039B0140
:10399000AC01C501B4010E94FC0220E030E040EC23
:1039A00050E40E943D049B01AC01C701B6010E9496
:1039B000FC0220E030E040E05FE30E94FC020E9455
:1039C0003C0569837A838B839C83BE016F5F7F4F45
:1039D000C3010E94D81B81E001C080E00F900F90CE
:1039E0000F900F90DF91CF911F910F91FF90EF906B
:1039F000DF90CF90BF90AF909F908F907F906F900F
:103A00000895BC016F5D7F4F0C94E61BBC01645EA2
:103A10007F4F0C94E61B0F931F93CF93DF93CDB78B
:103A2000DEB728970FB6F894DEBF0FBECDBF8C016E
:103A3000BE016B5F7F4F0E943E188823C9F020E0D3
:103A400030E04AE754E46D817E818F8198850E9441
:103A500058030E943C0569837A838B839C83BE0153
:103A60006F5F7F4FC80186960E94D81B81E001C01E
:103A700080E028960FB6F894DEBF0FBECDBFDF9171
:103A8000CF911F910F910895CF93DF9300D000D075
:103A9000CDB7DEB7DC011496FD0101900020E9F7F7
:103AA0003297EA17FB07E9F4FC0124812534B9F0C9
:103AB0002735B9F441A152A163A174A17095609515
:103AC000509541955F4F6F4F7F4F49835A836B836A
:103AD0007C83BE016F5F7F4F81960E94D81B81E07F
:103AE00001C080E00F900F900F900F90DF91CF9169
:103AF0000895CF93DF9300D000D0CDB7DEB7DC01BF
:103B00001496FD0101900020E9F73297EA17FB07B0
:103B1000E9F4FC0124812E34B9F02335B9F4448D45
:103B2000558D668D778D70956095509541955F4F59
:103B30006F4F7F4F49835A836B837C83BE016F5FD6
:103B40007F4F4C960E94D81B81E001C080E00F900F
:103B50000F900F900F90DF91CF910895FC01DB0142
:103B60008C91808381E08183CF0108950F931F930F
:103B7000CF93DF9300D000D01F92CDB7DEB78C017A
:103B8000BE016F5F7F4F0E94E917882399F049813A
:103B90005A816B817C81403851056105710554F46F
:103BA0004D83BE016B5F7F4FC8018E960E94AE1D94
:103BB00081E001C080E00F900F900F900F900F9068
:103BC000DF91CF911F910F910895FC01DB014D9181
:103BD0005D916D917C91408351836283738381E019
:103BE0008483CF010895EF92FF920F931F93CF9399
:103BF000DF9300D000D0CDB7DEB7DC011496FD0115
:103C000001900020E9F73797EA17FB0709F03FC05A
:103C100019821A821B821C8254E1E52EF12C40E0AD
:103C200050E0BA01E0E0F0E09C012E0F3F1FD90107
:103C300014960C91202F332727FD309520533109FE
:103C40002A30310520F5005310E00E2C02C0000F81
:103C5000111F0A94E2F7222717FD2095322F402BDF
:103C6000512B622B732B3196B4E0EB1AF108E6303E
:103C7000F105D1F649835A836B837C83BE016F5F64
:103C80007F4F89589F4F0E94E51D81E001C080E071
:103C90000F900F900F900F90DF91CF911F910F9188
:103CA000FF90EF900895AF92BF92CF92DF92EF9284
:103CB000FF920F931F93CF93DF9300D000D0CDB727
:103CC000DEB7FC010496DC010D900020E9F7AD01A0
:103CD00041505109481B590B4630510514F480E0FE
:103CE00090C080E090E0DF01A80FB91F14962C91DE
:103CF000332727FD3095205331092A30310578F7D5
:103D000001968630910579F7A481A05366816053AE
:103D1000808580532185205330E0BAE08B9F200DB1
:103D2000311D11248781805390E07AE0679F800DD8
:103D3000911D11246581605370E0BAE0AB9F600D66
:103D4000711D11241CE3169FD001179FB00D112483
:103D50008A0F9B1F189FB001199F700D1124260F09
:103D6000371FA8EEB3E00E94EC218B019C01698310
:103D70007A838B839C836A0177E0C71AD10884E039
:103D8000C816D1041CF073E0C72ED12CE12CF12C05
:103D900084E690E06AE0A62EB12C24C0DF01AE0DCF
:103DA000BF1D1B966C91462F552747FD50954053DC
:103DB00051094A30510508F092CF6053689FA00125
:103DC000699F500D1124662757FD6095762F040FCB
:103DD000151F261F371FB5010E941722CB01AFEF19
:103DE000EA1AFA0AEC14FD04CCF209831A832B8335
:103DF0003C83BE016F5F7F4FCF0147960E94E51D58
:103E000081E00F900F900F900F90DF91CF911F9155
:103E10000F91FF90EF90DF90CF90BF90AF900895FB
:103E2000FC01DB018D919C919183808381E08283F1
:103E3000CF010895CF93DF9300D0CDB7DEB7DC017B
:103E40001496FD0101900020E9F73197EA1BFB0B66
:103E5000E130F105A9F4DC0114962C912D3419F40C
:103E60001A82198204C0213459F4FA83E983BE010D
:103E70006F5F7F4F8C5B9F4F0E94101F81E001C0DE
:103E800080E00F900F90DF91CF910895FC01DB014E
:103E90008D919C919183808381E08283CF010895ED
:103EA000CF93DF9300D0CDB7DEB7DC011496FD01D0
:103EB00001900020E9F73197EA1BFB0BE130F10597
:103EC000E1F4DC0114962C91213419F41A82198240
:103ED0000BC0243419F4FA83E98306C0253469F44D
:103EE00022E030E03A832983BE016F5F7F4F895B18
:103EF0009F4F0E94461F81E001C080E00F900F900D
:103F0000DF91CF910895CF93DF9300D0CDB7DEB787
:103F1000DC011496FD0101900020E9F73197EA1BBE
:103F2000FB0BE130F105E1F4DC0114962C91213317
:103F300019F41A8219820BC0223319F4FA83E98327
:103F400006C0233369F422E030E03A832983BE01BE
:103F50006F5F7F4F895B9F4F0E94461F81E001C0CA
:103F600080E00F900F90DF91CF910895FC01DB016D
:103F70008D919C919183808381E08283CF0108950C
:103F80000F931F93CF93DF9300D01F92CDB7DEB76F
:103F90008C01BE016D5F7F4F0E94CF178823D1F047
:103FA0008B81813039F0833041F0811113C01A8246
:103FB000198207C081E090E002C082E090E09A831D
:103FC0008983BE016F5F7F4FC8018B960E94B61F29
:103FD00081E001C080E00F900F900F90DF91CF91B2
:103FE0001F910F91089585E391E090934E04809383
:103FF0004D0487EF91E09093500480934F048EE03E
:10400000809351048BE391E090934904809348049A
:1040100083EB91E090934B0480934A0481E1809379
:104020004C0487E491E090934404809343048FE828
:1040300091E0909346048093450489E0809347047F
:1040400081E491E090933F0480933E048FE591E0FA
:1040500090934104809340048CE08093420483E574
:1040600091E090933A048093390487E591E090932E
:104070003C0480933B0482E080933D040895CF92FA
:10408000DF92EF92FF920F931F93CF93DF938C01F8
:104090006B0161E08DE00E94B10EC0E0D0E0EE2443
:1040A000D7FCE094FE2C11C061E08DE00E94E90E87
:1040B000C701B6010E94260E60E08DE00E94E90E65
:1040C000C701B6010E94260E2196C017D10764F3DE
:1040D000DF91CF911F910F91FF90EF90DF90CF90E4
:1040E0000895FC0180A1882381F0448D558D668D53
:1040F000778D4093690350936A0360936B037093C9
:104100006C0310A281E08093DE0485A1882381F0F6
:1041100041A152A163A174A140936D0350936E031A
:1041200060936F037093700315A281E08093DE04A7
:1041300085A5882339F083A58093AD0315A681E07A
:104140008093DE0487A5882339F086A58093AC038D
:1041500017A681E08093DE0482A5882381F046A122
:1041600057A160A571A540937503509376036093A2
:1041700077037093780312A681E08093DE0408959C
:10418000CF92DF92EF92FF92CF9367EA70E086E0E2
:1041900090E00E943F20F89441E060E875E280E002
:1041A00090E00E94A40F78948EE70E9419108EE789
:1041B0000E9419108EE70E94191064EF71E080E0F0
:1041C00090E00E94260E40E056E960E070E08AEA46
:1041D00092E00E94CD0B6FE272E08AEA92E00E94C8
:1041E000230D8AEA92E00E94060B6DE372E08AEAF0
:1041F00092E00E94230D8AEA92E00E94060B6EE490
:1042000072E08AEA92E00E94230D8AEA92E00E941C
:10421000060B6EE772E08AEA92E00E94230D8AEABA
:1042200092E00E94060B60E972E08AEA92E00E9446
:10423000230D8AEA92E00E94060B8AEA92E00E942D
:104240004E0C40E056E960E070E08AEA92E00E949D
:10425000CD0B64EF71E085E090E00E943F2064EFB9
:1042600071E080E090E00E94260EC0E0C12CD12CCD
:10427000760182E594E00E9413160E94EA0D6C1903
:104280007D098E099F09693E73408105910588F07B
:104290000E94EA0D6B017C01C11106C061E08DE056
:1042A0000E94E90EC1E005C060E08DE00E94E90EC9
:1042B000C0E08091AC038530E0F261E08DE00E94C7
:1042C000E90E1092DE04CF91FF90EF90DF90CF9037
:1042D00008950F931F9382E594E00E9413160E94A5
:1042E000EA0D0091DF041091E0042091E104309187
:1042F000E204601B710B820B930B64317105810525
:10430000910560F00E94EA0D6093DF047093E00471
:104310008093E1049093E2040E9419128091DE04DC
:10432000882309F44EC080910201882321F10E9464
:10433000EA0D0091E3041091E4042091E50430912A
:10434000E604601B710B820B930B653671058105CA
:104350009105B8F10E94EA0D6093E3047093E404C0
:104360008093E5049093E60460E08DE00E94E90EFE
:104370001092020124C00E94EA0D0091E304109102
:10438000E4042091E5043091E604601B710B820B7C
:10439000930B613971408105910598F00E94EA0DF7
:1043A0006093E3047093E4048093E5049093E6043F
:1043B00061E08DE00E94E90E81E08093020110929D
:1043C000DE041F910F91089541E750E26AEA72E01E
:1043D00082E594E00C94C218A29FB001B39FC00183
:1043E000A39F01D0B29F700D811D1124911D0895CE
:1043F0000E94EC21A59F900DB49F900DA49F800D6D
:10440000911D11240895AA1BBB1B51E107C0AA1FCF
:10441000BB1FA617B70710F0A61BB70B881F991F65
:104420005A95A9F780959095BC01CD01089597FB09
:10443000072E16F4009407D077FD09D00E940322BE
:1044400007FC05D03EF4909581959F4F0895709597
:1044500061957F4F0895A1E21A2EAA1BBB1BFD0197
:104460000DC0AA1FBB1FEE1FFF1FA217B307E40753
:10447000F50720F0A21BB30BE40BF50B661F771FAB
:10448000881F991F1A9469F760957095809590958B
:104490009B01AC01BD01CF010895052E97FB16F4D9
:1044A000009407D057FD0DD00E942B2207FC09D0A5
:1044B0007EF490958095709561957F4F8F4F9F4FBB
:1044C000089550954095309521953F4F4F4F5F4F40
:1044D00008952F923F924F925F926F927F928F92A8
:1044E0009F92AF92BF92CF92DF92EF92FF920F9383
:1044F0001F93CF93DF93CDB7DEB7CA1BDB0B0FB68D
:10450000F894DEBF0FBECDBF09942A883988488849
:104510005F846E847D848C849B84AA84B984C884DF
:10452000DF80EE80FD800C811B81AA81B981CE0FD6
:10453000D11D0FB6F894DEBF0FBECDBFED010895BB
:104540000F930F7351F0220F331F441F551F661F27
:10455000771F881F991F0A95B1F70F9108952A0DAB
:104560003B1D4C1D5D1D6E1D7F1D801F911F0895FD
:104570000024A7FD00942A0F301D401D501D601D12
:10458000701D801D901D08950024A7FD00942A171A
:1045900030054005500560057005800590050895BB
:1045A000EE0FFF1F0590F491E02D09940E94DF2289
:1045B00084FF0895CB010E94DF22805F0895AA271F
:1045C000992329F4A85F982B11F480E10895903184
:1045D00018F4AD5F9295A395990FE8F78A2F992764
:1045E00008950F930F7351F096958795779567957A
:1045F00057954795379527950A95B1F70F910895E7
:104600002A153B054C055D056E057F058007910762
:104610000895283008F027E03327DA01990F311D7B
:1046200087FD916000966105710539F432602E5F57
:104630003D9330E32A95E1F708959F3F30F08038AD
:104640007105610509F03C5F3C5F3D93913008F0D6
:104650008068911DDF93CF931F930F93FF92EF928A
:10466000192F987F9695E92F96959695E90FFF2734
:10467000E65EFE4F99273327EE24FF24A701E701CA
:1046800005900894079428F4360FE71EF81E491F7A
:10469000511D660F771F881F991F0694A1F705907B
:1046A000079428F4E70EF81E491F561FC11D770F07
:1046B000881F991F661F0694A1F70590079428F498
:1046C000F80E491F561FC71FD11D880F991F661F5F
:1046D000771F0694A1F70590079420F4490F561F01
:1046E000C71FD81F990F661F771F881F0694A9F749
:1046F00084911095177041F0D695C79557954795B9
:10470000F794E7941A95C1F7E0ECF0E068941590FF
:10471000159135916591959105907FE27395E1181A
:10472000F10A430B560BC90BD009C0F7E10CF11E7F
:10473000431F561FC91FD01D7EF4703311F48A9594
:10474000E6CFE894015030F0080F0AF40027021772
:1047500008F4202F2395022F7A3328F079E37D93F4
:104760002A95E9F710C07D932A9589F606949795C6
:104770006795379517951794E118F10A430B560B77
:10478000C90BD00998F023957E9173957A3308F080
:1047900070E37C932013B8F77E9170617D9330F0C5
:1047A000839571E37D9370E32A95E1F71124EF90EF
:1047B000FF900F911F91CF91DF91992787FD9095E1
:1047C0000895911106C080538A5010F0865C06C08F
:1047D000089599278827089585FDFBCF8062911160
:1047E000F8CF81568A51E0F708959111F2CF8053A6
:1047F0008A5028F0865C806281568650B8F708950A
:10480000FC010590615070400110D8F7809590959B
:104810008E0F9F1F0895FB01DC018D91019080197F
:104820000110D9F3990B0895FB01DC0101900D9261
:104830000020E1F70895FC016150704001900110E3
:10484000D8F7809590958E0F9F1F08950F931F9313
:10485000CF93DF938C01EB018B8181FD03C00FEFC0
:104860001FEF1AC082FF0DC02E813F818C819D8178
:104870002817390764F4E881F9810193F983E88303
:1048800006C0E885F985802F0995892B41F78E812F
:104890009F8101969F838E83C801DF91CF911F91E5
:1048A0000F910895FA01AA27283051F1203181F1A2
:1048B000E8946F936E7F6E5F7F4F8F4F9F4FAF4F28
:1048C000B1E03ED0B4E03CD0670F781F891F9A1F3B
:1048D000A11D680F791F8A1F911DA11D6A0F711DEF
:1048E000811D911DA11D20D009F468943F912AE0FB
:1048F000269F11243019305D3193DEF6CF010895E3
:10490000462F4770405D4193B3E00FD0C9F7F6CF13
:10491000462F4F70405D4A3318F0495D31FD4052DB
:10492000419302D0A9F7EACFB4E0A6959795879571
:1049300077956795BA95C9F7009761057105089550
:104940009B01AC010A2E06945795479537952795FC
:10495000BA95C9F7620F731F841F951FA01D089594
:04496000F894FFCFF9
:10496400FFFF010000000000000000000000001133
:104974000BFB0CB50AE40AC80A060BCC1192118B86
:1049840011B11184117D11E71176116F11021268B2
:104994001161114750474741004750475341004771
:1049A40050524D4300475056544700504D544B30DD
:1049B40030310041434B0027130000FE190000531F
:1049C4001E00003A130000061D0000791D000001BE
:1049D4001D0000441D0000B21A0000141B0000F367
:1049E4001D00002F1A0000A71B0000501F00001418
:1049F4001B0000E5120000EA1A0000CF120000B20A
:104A04001A0000111300007A1A0000FB1200005073
:104A14001F00001A1F0000831F0000BE190000BE03
:104A2400190000BE190000BE190000BE190000BE26
:104A3400190000BE190000BE190000BE190000BE16
:104A4400190000BE190000BE190000841B0000619B
:104A54001B00003E1B0000531E0000061D000079D1
:104A64001D0000011D0000441D0000C01F0000B611
:104A74001D0000611B00000B1D0000B9120000574F
:104A84001A0000B9120000901200009012000024D5
:104A9400504D544B3130342A33370D0A0024504DD5
:104AA400544B3331342C2D312A30340D0A00245028
:104AB4004D544B3331342C302C302C312C312C30A0
:104AC4002C302C302C302C302C302C302C302C3002
:104AD4002C302C302C302C302A32380D0A00245043
:104AE4004D544B3232302C3230302A32430D0A00CE
:104AF40024504D544B3330302C3230302C302C3049
:0A4B04002C302C302A32460D0A0036
:00000001FF
